{
  "contractName": "PhotoPurchase",
  "abi": [
    {
      "constant": true,
      "inputs": [
        {
          "internalType": "uint256",
          "name": "",
          "type": "uint256"
        }
      ],
      "name": "runners",
      "outputs": [
        {
          "internalType": "address",
          "name": "",
          "type": "address"
        }
      ],
      "payable": false,
      "stateMutability": "view",
      "type": "function"
    },
    {
      "constant": false,
      "inputs": [
        {
          "internalType": "uint256",
          "name": "photoId",
          "type": "uint256"
        },
        {
          "internalType": "address payable",
          "name": "recipient",
          "type": "address"
        }
      ],
      "name": "purchase",
      "outputs": [],
      "payable": true,
      "stateMutability": "payable",
      "type": "function"
    },
    {
      "constant": true,
      "inputs": [],
      "name": "getRunners",
      "outputs": [
        {
          "internalType": "address[500]",
          "name": "",
          "type": "address[500]"
        }
      ],
      "payable": false,
      "stateMutability": "view",
      "type": "function"
    }
  ],
  "bytecode": "0x608060405234801561001057600080fd5b5061031a806100206000396000f3fe6080604052600436106100345760003560e01c806347e9907b14610039578063ae77c237146100b4578063b9c9a46314610102575b600080fd5b34801561004557600080fd5b506100726004803603602081101561005c57600080fd5b8101908080359060200190929190505050610156565b604051808273ffffffffffffffffffffffffffffffffffffffff1673ffffffffffffffffffffffffffffffffffffffff16815260200191505060405180910390f35b610100600480360360408110156100ca57600080fd5b8101908080359060200190929190803573ffffffffffffffffffffffffffffffffffffffff16906020019092919050505061018a565b005b34801561010e57600080fd5b5061011761023e565b60405180826101f460200280838360005b83811015610143578082015181840152602081019050610128565b5050505090500191505060405180910390f35b6000816101f4811061016457fe5b016000915054906101000a900473ffffffffffffffffffffffffffffffffffffffff1681565b6000821015801561019c57506101f482105b6101a557600080fd5b336000836101f481106101b457fe5b0160006101000a81548173ffffffffffffffffffffffffffffffffffffffff021916908373ffffffffffffffffffffffffffffffffffffffff1602179055508073ffffffffffffffffffffffffffffffffffffffff166108fc349081150290604051600060405180830381858888f19350505050158015610239573d6000803e3d6000fd5b505050565b6102466102c1565b60006101f48060200260405190810160405280929190826101f480156102b7576020028201915b8160009054906101000a900473ffffffffffffffffffffffffffffffffffffffff1673ffffffffffffffffffffffffffffffffffffffff168152602001906001019080831161026d575b5050505050905090565b60405180613e8001604052806101f49060208202803883398082019150509050509056fea265627a7a72315820ba9780ea4e560c4a60e2bda9b289939730bbadf749f34900d8d42ee0f5247d0664736f6c63430005100032",
  "source": "pragma solidity ^0.5.0;\n\ncontract PhotoPurchase {\n\n  address[500] public runners;\n\n  // Purchasing a photo\n  function purchase(uint photoId, address payable recipient) public payable {\n    require(photoId >= 0 && photoId < 500);\n    runners[photoId] = msg.sender;\n    recipient.transfer(msg.value);\n  }\n\n  // Retrieving the runners\n  function getRunners() public view returns (address[500] memory) {\n    return runners;\n  }\n}\n",
  "sourcePath": "/app/contracts/PhotoPurchase.sol",
  "compiler": {
    "name": "solc",
    "version": "0.5.16+commit.9c3226ce.Emscripten.clang"
  },
  "schemaVersion": "3.4.7",
  "updatedAt": "2022-05-18T15:52:09.496Z",
  "networkType": "ethereum",
  "devdoc": {
    "methods": {}
  },
  "userdoc": {
    "methods": {}
  }
}