{
  "contractName": "PhotoPurchase",
  "abi": [
    {
      "constant": true,
      "inputs": [
        {
          "internalType": "uint256",
          "name": "",
          "type": "uint256"
        }
      ],
      "name": "runners",
      "outputs": [
        {
          "internalType": "address",
          "name": "",
          "type": "address"
        }
      ],
      "payable": false,
      "stateMutability": "view",
      "type": "function"
    },
    {
      "constant": false,
      "inputs": [
        {
          "internalType": "uint256",
          "name": "photoId",
          "type": "uint256"
        }
      ],
      "name": "purchase",
      "outputs": [
        {
          "internalType": "uint256",
          "name": "",
          "type": "uint256"
        }
      ],
      "payable": false,
      "stateMutability": "nonpayable",
      "type": "function"
    },
    {
      "constant": true,
      "inputs": [],
      "name": "getRunners",
      "outputs": [
        {
          "internalType": "address[999999]",
          "name": "",
          "type": "address[999999]"
        }
      ],
      "payable": false,
      "stateMutability": "view",
      "type": "function"
    }
  ],
  "bytecode": "0x608060405234801561001057600080fd5b506102c9806100206000396000f3fe608060405234801561001057600080fd5b50600436106100415760003560e01c806347e9907b14610046578063b9c9a463146100b4578063efef39a1146100fc575b600080fd5b6100726004803603602081101561005c57600080fd5b810190808035906020019092919050505061013e565b604051808273ffffffffffffffffffffffffffffffffffffffff1673ffffffffffffffffffffffffffffffffffffffff16815260200191505060405180910390f35b6100bc610173565b6040518082620f423f60200280838360005b838110156100e95780820151818401526020810190506100ce565b5050505090500191505060405180910390f35b6101286004803603602081101561011257600080fd5b81019080803590602001909291905050506101f8565b6040518082815260200191505060405180910390f35b600081620f423f811061014d57fe5b016000915054906101000a900473ffffffffffffffffffffffffffffffffffffffff1681565b61017b61026d565b6000620f423f806020026040519081016040528092919082620f423f80156101ee576020028201915b8160009054906101000a900473ffffffffffffffffffffffffffffffffffffffff1673ffffffffffffffffffffffffffffffffffffffff16815260200190600101908083116101a4575b5050505050905090565b600080821015801561020d5750620f423f8211155b61021657600080fd5b33600083620f423f811061022657fe5b0160006101000a81548173ffffffffffffffffffffffffffffffffffffffff021916908373ffffffffffffffffffffffffffffffffffffffff160217905550819050919050565b604051806301e847e00160405280620f423f9060208202803883398082019150509050509056fea265627a7a72315820fdb9d4de9add3b9f8165c5e92c3c00371deaa70db6bf652a75ad0d27d1ee4ca364736f6c63430005100032",
  "source": "pragma solidity ^0.5.0;\n\ncontract PhotoPurchase {\naddress[999999] public runners;\n\n// Purchasing a photo\nfunction purchase(uint photoId) public returns (uint) {\n  require(photoId >= 0 && photoId <= 999999);\n\n  runners[photoId] = msg.sender;\n\n  return photoId;\n}\n\n// Retrieving the runners\nfunction getRunners() public view returns (address[999999] memory) {\n  return runners;\n}\n\n\n\n}\n",
  "sourcePath": "/app/contracts/PhotoPurchase.sol",
  "compiler": {
    "name": "solc",
    "version": "0.5.16+commit.9c3226ce.Emscripten.clang"
  },
  "schemaVersion": "3.4.7",
  "updatedAt": "2022-05-07T20:44:51.151Z",
  "networkType": "ethereum",
  "devdoc": {
    "methods": {}
  },
  "userdoc": {
    "methods": {}
  }
}